:020000040800F2
:10000000500900200D020008A9120008490B000841
:10001000E71100080D050008232300080000000078
:10002000000000000000000000000000551500085E
:1000300011050008000000005113000869160008AF
:1000400027020008270200082702000827020008EC
:1000500027020008270200082702000827020008DC
:1000600027020008270200082702000827020008CC
:1000700027020008270200082702000827020008BC
:1000800027020008270200082702000827020008AC
:1000900027020008270200082702000815050008AB
:1000A000270200082702000827020008270200088C
:1000B000270200082702000827020008270200087C
:1000C000270200082702000827020008270200086C
:1000D00027020008B11E0008391F000899200008F7
:1000E000270200082702000827020008270200084C
:1000F000270200082702000827020008270200083C
:10010000270200082702000827020008270200082B
:1001100027020008270200080D190008270200081E
:10012000270200082702000827020008270200080B
:1001300000F002F800F05AF80AA090E8000C82449F
:100140008344AAF10107DA4501D100F04FF8AFF27C
:10015000090EBAE80F0013F0010F18BFFB1A43F0A5
:10016000010318477C8100009C8100000A444FF085
:10017000000C10F8013B13F0070408BF10F8014B06
:100180001D1108BF10F8015B641E05D010F8016B4B
:10019000641E01F8016BF9D113F0080F1EBF10F8AF
:1001A000014BAD1C0C1B09D16D1E58BF01F801CBD2
:1001B000FAD505E014F8016B01F8016B6D1EF9D555
:1001C0009142D6D37047000000230024002500266A
:1001D000103A28BF78C1FBD8520728BF30C148BFAA
:1001E0000B6070471FB51FBD10B510BD00F060F962
:1001F0001146FFF7F7FF04F027FE00F07EF903B485
:10020000FFF7F2FF03BC02F025FB0000094880471E
:1002100009480047FEE7FEE7FEE7FEE7FEE7FEE7E8
:10022000FEE7FEE7FEE7FEE704480549054A064B00
:10023000704700006D1600083101000850030020CF
:10024000500900205005002050050020704710B5CF
:100250004C1084EA530404D54042C1F1000138BF78
:10026000491E1B4204D55242C3F1000338BF5B1E36
:1002700000F049F814F0804F04D04042C1F1000171
:1002800038BF491E14F0004F04D05242C3F100039E
:1002900038BF5B1E10BD40EA010310B59B070FD1AC
:1002A000042A0DD310C808C9121F9C42F8D020BAE6
:1002B00019BA884201D9012010BD4FF0FF3010BD9E
:1002C0001AB1D30703D0521C07E0002010BD10F86C
:1002D000013B11F8014B1B1B07D110F8013B11F832
:1002E000014B1B1B01D1921EF1D1184610BD02F02B
:1002F000FF0343EA032242EA024200F088B8704753
:1003000070477047704753EA020C00F069802DE98E
:10031000F04B4FF00006002B1FBFB3FA83F503FA32
:1003200005F424FA05F65E4012BF1643B2FA82F5D0
:1003300002FA05F4C5F120051EBF22FA05FC44EAC5
:100340000C04203556EA044C4FEA144418BF641CD0
:100350004FF000084FF00009904271EB030C39D3C5
:10036000002919BFB1FA81F701FA07F6B0FA80F750
:1003700000FA07F6C7F120071EBF20FA07FC46EA7D
:100380000C062037B6FBF4FCA7EB0507103F07F07F
:100390001F0BCBF120060CFA0BFB2CFA06F644BF20
:1003A000B3460026202FA4BF5E464FF0000B5BEA49
:1003B000060C08BF4FF0010B19EB0B09ABFB027CDD
:1003C00048EB0608C01B06FB02CC0BFB03CC71EB11
:1003D0000C01C1E70B46024641464846BDE8F08B9A
:1003E00013B54FF000004FF00001AFF30080BDE8FF
:1003F0001C40704710B500F02BF8006810BD10B518
:10040000044600F025F8046010BD4FF000020429F6
:10041000C0F0128010F0030C00F02080CCF1040C2E
:10042000BCF1020F18BF00F8012BA8BF20F8022B67
:10043000A1EB0C0100F012B85FEAC17C24BF00F808
:10044000012B00F8012B48BF00F8012B704700007A
:1004500000487047F00200204FF0000200B513463C
:1004600094469646203922BFA0E80C50A0E80C50D4
:10047000B1F12001BFF4F7AF090728BFA0E80C5085
:1004800048BF0CC05DF804EB890028BF40F8042B7E
:1004900008BF704748BF20F8022B11F0804F18BFEB
:1004A00000F8012B7047000000487047F002002060
:1004B0007546FFF7F9FFAE4605006946534620F042
:1004C0000700854618B020B5FFF7AEFEBDE8204016
:1004D0004FF000064FF000074FF000084FF0000B00
:1004E00021F00701AC46ACE8C009ACE8C009ACE8B3
:1004F000C009ACE8C0098D46704710B50446AFF39B
:1005000000802046BDE81040FFF779BE00BFFEE73F
:10051000704700002DE9F041202000F01FF900286D
:100520007ED07448006800287AD1734801F0F4FE48
:10053000012802D103F0BCFE36E06F4801F0ECFE6A
:10054000022802D103F066FF2EE06B4801F0E4FEC2
:10055000032802D104F00EF826E0674801F0DCFE23
:10056000042802D104F0B6F81EE0634801F0D4FE7E
:10057000052802D104F05EF916E05F4801F0CCFED8
:10058000062802D104F002FA0EE05B4801F0C4FE36
:10059000072802D104F0FCFA06E0574801F0BCFE3F
:1005A000082801D104F0F6FB022000F05DFF53495A
:1005B0000860032000F058FF4042514908604F484E
:1005C0000068096808444F4908604F4A4F4950483D
:1005D00004F0A6FC4F4A5049504800F03DFB494802
:1005E000006801F0A1FE4E4908604A48B0F90000D9
:1005F00001F02EFC4B4908604648B0F9000001F0BC
:1006000089FF494908604948006801280DD04848D9
:100610000068012809D047480068012805D000E09B
:1006200065E045480068012814D13D4800683D490F
:10063000096808443C490968401A4049086038483C
:10064000006838490968401A3749096808443C4934
:1006500008603FE03B490968A1F1700006F04EFDDB
:10066000074639480168384606F0A8FD05462C497A
:1006700009682C4A126811442B4A1268881A06F03D
:100680003DFD0646294606F099FB044606F0FAFCB5
:100690002A4908602B490968A1F1700006F02EFD77
:1006A00007462A480168384606F088FD05461C4979
:1006B00009681C4A1268891A1B4A1268881806F0D1
:1006C0001DFD0646294606F079FB044606F0DAFCD5
:1006D0001B4908601A49194800F06AFA184801686D
:1006E0001648006800F0E2FE202000F031F8BDE876
:1006F000F0810000148121420048004018000020D1
:100700001C000020C0000020140000201000002069
:100710000C0000200800002006000020040000203B
:10072000B8000020BC000020B4000020D000002051
:10073000D4000020E0000020EC000020C4000020D5
:10074000C80000204C000020AC000020B0000020B9
:100750000149086070470000140401400146002070
:100760000022074B1B6803EA0102054B14331B6888
:100770000B4013B10AB1012000E0002070470000D7
:1007800000040140002123498279002A3AD00A4618
:10079000126803689A430B461A600A1D12680368C0
:1007A0009A430B1D1A60027911440A6803681A43C0
:1007B0000A60184A0832126803689A43154B0833D6
:1007C0001A601A1D126803689A43124B0C331A60A0
:1007D0004279102A0ED11A1F126803681A430D4B72
:1007E00008331A601A1D126803681A43094B0C3348
:1007F0001A600DE00749427911440A6803681A43F8
:100800000A6005E0027911440A6803689A430A60A5
:10081000704700000004014000B587B001210420AA
:1008200000F0A8FD0121084600F094FD04208DF899
:100830001B000320ADF8180006A91C4800F0ACF816
:100840000020ADF81200ADF80E004FF6FF70ADF8C5
:1008500010000020ADF80C0003A94FF0804001F01B
:10086000A5FA00231A4603214FF0804001F06EF8EC
:10087000684601F0F7F80A20ADF80800694640071D
:1008800001F09AF80121880701F04EF80122114683
:10089000900701F0F0F800214FF0804001F058FA85
:1008A0000121880701F046F807B000BD00080140AB
:1008B00000B587B00121042000F05CFD0121022079
:1008C00000F048FD04208DF81B00C020ADF8180092
:1008D00006A91B4800F060F80020ADF81200ADF842
:1008E0000E004FF6FF70ADF810000020ADF80C00C0
:1008F00003A9144801F05AFA00231A4603211148AB
:1009000001F024F8684601F0ADF80A20ADF80800BF
:1009100069460C4801F050F801210A4801F004F83A
:1009200001221146074801F0A6F80021054801F010
:100930000FFA0121034800F0FDFF07B000BD0000E1
:1009400000080140000400400146002901DD0A467C
:1009500000E04A421046704730B500228B071C0F5A
:100960000F2303FA04F20B4B8C1053F824309343FB
:10097000084C8D1044F8253023468C1053F8243051
:100980008C07240F00FA04F42343024C8D1044F822
:10099000253030BD080001402DE9F0410246002518
:1009A0000026002000230024002791F803C00CF04B
:1009B0000F0591F803C00CF0100CBCF1000F03D030
:1009C00091F802C04CEA050591F800C0BCF1000F97
:1009D00031D0146800202BE04FF0010C0CFA00F32A
:1009E000B1F800C00CEA03069E4220D183004FF00C
:1009F0000F0C0CFA03F7BC4305FA03FC4CEA0404A1
:100A000091F803C0BCF1280F06D14FF0010C0CFA8D
:100A100000FCC2F814C00AE091F803C0BCF1480F12
:100A200005D14FF0010C0CFA00FCC2F810C0401CBC
:100A30000828D1D31460B1F800C0BCF1FF0F34DD39
:100A4000546800202EE000F1080C4FF0010808FA6D
:100A50000CF3B1F800C00CEA03069E4221D18300DA
:100A60004FF00F0C0CFA03F7BC4305FA03FC4CEAF9
:100A7000040491F803C0BCF1280F05D100F1080C63
:100A800008FA0CF8C2F8148091F803C0BCF1480FC2
:100A900007D100F1080C4FF0010808FA0CF8C2F871
:100AA0001080401C0828CED35460BDE8F0810000BF
:100AB000F0B50A46002300240021002500F000467E
:100AC000B6F1004F02D11D4EF16901E01B4E716875
:100AD000C0F3034583B200F44016B6F5401F08D1B9
:100AE00021F07061154E766826F07066134F7E60B7
:100AF00012E000F48016B6F5801F06D1032606FA30
:100B000005F4A14341F0706106E0460D360103FA99
:100B100006F6B14341F0706122B1460D360103FA89
:100B200006F6314300F00046B6F1004F02D1034E05
:100B3000F16101E0014E7160F0BD00000000014074
:100B4000416170470161704700BFFEE708B50121B0
:100B5000042000F00FFC4FF48070ADF8000010206E
:100B60008DF8030003208DF8020069460E48FFF758
:100B700013FF4FF480710C48FFF7E4FF01212020A0
:100B800000F0F8FB0420ADF8000010208DF8030001
:100B900003208DF8020069460448FFF7FDFE04219A
:100BA0000248FFF7CFFF08BD0008014000140140D4
:100BB0000268B2F5E15F02DB41F61F4202600268A3
:100BC00012F5E15F01DC084A02600A68B2F5E15FF4
:100BD00002DB41F61F420A600A6812F5E15F01DCA0
:100BE000014A0A6070470000E1E3FFFF1FB50121E1
:100BF000092000F0BFFB2020ADF8040048208DF84C
:100C0000070003208DF8060001A91248FFF7C4FE73
:100C100005210120FFF7A0FE2020029001208DF881
:100C20000E0000208DF80C000C208DF80D0002A89D
:100C3000FFF7A8FD17208DF8000000208DF80100B7
:100C40008DF8020001208DF80300684600F03EFB9D
:100C50001FBD0000000C01402DE9FC4104460D467B
:100C600016466B4606224321682000F0E6F9074647
:100C7000BFB99DF801009DF8001040EA012000B2C4
:100C800020809DF803009DF8021040EA012000B288
:100C900028809DF805009DF8041040EA012000B26C
:100CA00030803846BDE8FC8110B500200E49086050
:100CB0000E48006820F470400C490860084600683F
:100CC00040F44050086000200949C1F8AC0100F030
:100CD00011F801200449086000F00CF800200449D4
:100CE000C1F8A80110BD0000A8812142040C0140F8
:100CF0000080214210B5022002F084F910BD0000EE
:100D000008B50121082000F035FB4FF44060ADF834
:100D1000000010208DF8030003208DF802006946C2
:100D20000448FFF739FE4FF440610248FFF70AFF1D
:100D300008BD0000000C014010B500200E490860FD
:100D40000E48006820F470400C49086008460068AE
:100D500040F44050086001200949C1F8AC01FFF798
:100D6000C9FF012004490860FFF7C4FF00200449BF
:100D7000C1F8A80110BD0000A8812142040C014067
:100D80000080214270B5054600241648006820F412
:100D90007040144908600846006840F4004008604C
:100DA000002614E0002010490860FFF7A3FF01208F
:100DB0000E49C1F8A8016006040E0B487C38006893
:100DC00008B1601CC4B2FFF795FF701CC6B2082EB4
:100DD000E8DB15B9FFF7B0FF01E0FFF765FF20463C
:100DE00070BD0000040C0140A88121420080214216
:100DF00070B504461248006820F47040104908603D
:100E00000846006840F44050086000200D49086022
:100E1000002512E0E0090B49091D08606006040E78
:100E200001200949C1F8A801FFF764FF0020054926
:100E30000860FFF75FFF681CC5B2082DEADB70BDD4
:100E4000040C0140A88121420080214210B50E48C7
:100E5000006820F470400C4908600846006840F4BF
:100E6000405008600120094908600949C1F8A801FB
:100E7000FFF740FF002005490860FFF73BFF002017
:100E80000349C1F8A80110BD040C0140AC81214206
:100E90000080214210B50E48006820F470400C49D3
:100EA00008600846006840F4405008600020094986
:100EB00008600949C1F8AC01FFF71CFF0120054992
:100EC00008600549C1F8AC01FFF714FF10BD000030
:100ED000040C0140A88121420080214210B5002469
:100EE0001448006820F47040124908600846006801
:100EF00040F40040086001200F490860FFF7FAFE47
:100F000001200E49C1F8A801FFF7F4FE07E0601CBC
:100F1000C4B2FA2C03DDFFF7BDFF012010BD064867
:100F2000803800680028F2D10349091F086000BF1B
:100F3000F4E70000040C0140AC8121420080214212
:100F400038B50121084600F015FA0121042000F00F
:100F500011FA4FF40040ADF8000010208DF80300A6
:100F600003208DF8020069462248FFF715FD012194
:100F70002148FFF79DFD002020490860FFF7C0FED3
:100F800080216B2000F0DDF8642002F015F80021CC
:100F90006B2000F0D6F8032000F091F8002000F05C
:100FA00086F8C82000F0B0F80021382000F0C9F819
:100FB00000216A2000F0C5F80021232000F0C1F8CC
:100FC0008021372000F0BDF8752000F019F80446A4
:100FD000682C0BD101216B2000F0B3F800216C20AC
:100FE00000F0AFF8642000F08FF801E0012038BD78
:100FF0000020FCE70008014000023000BC01214253
:1010000070B50446FFF722FFD020FFF7F1FEFFF78F
:1010100065FF2046FFF7ECFEFFF760FFFFF716FFC6
:10102000D120FFF7E5FEFFF759FF0020FFF7AAFEEA
:101030000546FFF72FFF284670BD2DE9F041064613
:101040000F4614461D46FFF701FF002141EA460105
:10105000C8B2FFF7CDFEFFF741FF20B1FFF71AFF3F
:101060000120BDE8F0813846FFF7C2FEFFF736FFEA
:10107000FFF7ECFE012101EB4601C8B2FFF7B8FE15
:10108000FFF72CFF0DE0012C04D10020FFF77AFEC2
:10109000287003E00120FFF775FE2870601EC4B2BF
:1010A0006D1C002CEFD1FFF7F5FE0020D9E710B53D
:1010B0000446E006010E1C2000F043F810BD10B5F8
:1010C0000446E006010E1B2000F03BF810BD70B591
:1010D00004460025BC2C01DB012510E0622C01DB5D
:1010E00002250CE02A2C01DB032508E0142C01DB8F
:1010F000042504E00A2C01DB052500E0062529462D
:101100001A2000F01EF870BD70B50446B4F57A7F61
:1011100001DD4FF47A74042C00DA04244FF47A7061
:1011200090FBF4F0401EC5B22946192000F009F8E2
:101130000546264604EBD671C1F34F00FFF7C7FF03
:1011400070BD70B505460C46FFF780FED020FFF756
:101150004FFEFFF7C3FE18B1FFF79CFE012070BDE4
:101160002846FFF745FEFFF7B9FE2046FFF740FE91
:10117000FFF7B4FE18B1FFF78DFE0120EFE7FFF790
:1011800089FE0020EBE72DE9F04105460E461746A3
:101190009846FFF75BFE002141EA4501C8B2FFF720
:1011A00027FEFFF79BFE20B1FFF774FE0120BDE88C
:1011B000F0813046FFF71CFEFFF790FE00240CE0A4
:1011C00018F80400FFF714FEFFF788FE18B1FFF7C8
:1011D00061FE0120EBE7601CC4B2BC42F0DBFFF70C
:1011E00059FE0020E3E700BFFEE7000030B589B0FC
:1011F00005460C460121042000F0ACF8012109202D
:1012000000F0B8F818208DF823004FF47070ADF896
:10121000200003208DF8220008A92148FFF7BCFB1D
:10122000ADF81850ADF814400020ADF81A00ADF834
:10123000160005A91B4800F0B9FD7020ADF80400A8
:101240000120ADF806000220ADF80C000020ADF83A
:101250000A0001A9134800F017FC01A9114800F089
:1012600069FC01A90F4800F0C5FC01A90D4800F078
:101270001BFD08210B4800F053FC0821094800F031
:10128000ABFC0821074800F005FD0821054800F0E7
:1012900049FD0121034800F04DFB09B030BD0000BD
:1012A000000C014000080040704708B525208DF86B
:1012B000000001208DF8030002208DF801000020BD
:1012C0008DF80200684600F001F808BD70B50021F5
:1012D00000230F22C47804B3154C246804F4E0649E
:1012E000C4F5E064210AC1F10403CA40447804FA59
:1012F00003F184781440214309010E4C0678A1556E
:10130000047804F01F050124AC4005786D11AD0090
:1013100005F1E025C5F8004109E0047804F01F0557
:101320000124AC40044D0678761145F8264070BD86
:101330000CED00E000E400E080E100E00249014340
:10134000024A1160704700000000FA050CED00E051
:101350007047000029B1064AD2690243044BDA61A2
:1013600004E0034AD2698243014BDA61704700000E
:101370000010024029B1064A92690243044B9A6167
:1013800004E0034A92698243014B9A61704700006E
:101390000010024030B500210022002400232D4D12
:1013A0006D6805F00C0121B1042905D0082923D16D
:1013B00005E0294D056022E0274D05601FE0254D21
:1013C0006D6805F47012234D6D6805F480340225B4
:1013D00005EB92421CB9214D554305600BE01D4DB4
:1013E0006D6805F400351DB11C4D5543056002E0E4
:1013F000194D5543056002E0174D056000BF00BF61
:10140000144D6D6805F0F0010909154D6B5C056818
:10141000DD4045600F4D6D6805F4E061090A104D2F
:101420006B5C4568DD4085600A4D6D6805F4605170
:10143000C90A0B4D6B5C4568DD40C560054D6D68A4
:1014400005F44041890B074D6B5CC568B5FBF3F5AE
:10145000056130BD0010024000127A0000093D0015
:10146000380000204800002070B50546022D02D04B
:10147000032D14D10AE04FF0804000F088FA04B246
:1014800000214FF0804000F063FC0AE0064800F0C5
:101490007EFA04B20021044800F05AFC01E0002466
:1014A00000BF00BF204670BD0004004070B5054677
:1014B0000C46002D0BDA2846FFF746FA86B2314675
:1014C000234800F03CFC0021214800F03AFC002DAC
:1014D0000BDD00211E4800F032FC2846FFF734FAED
:1014E00086B231461A4800F02CFC4DB941F61F4136
:1014F000174800F024FC41F61F41154800F021FC7C
:10150000002C0BDA0021124800F01DFC2046FFF7EA
:101510001BFA86B231460E4800F017FC002C0BDD9A
:101520002046FFF711FA86B23146094800F00BFC5D
:101530000021074800F009FC4CB941F61F4104485E
:1015400000F001FC41F61F41014800F0FEFB70BDB8
:1015500000080040704710B500F002F810BD000010
:101560000CB50020019000903348006840F48030B2
:101570003149086000BF3048006800F40030009036
:101580000198401C0190009818B90198B0F5A06F1F
:10159000F1D12948006800F4003010B1012000901A
:1015A00001E0002000900098012843D12348006802
:1015B00040F01000214908600846006820F0030050
:1015C00008600846006840F0020008601A48406859
:1015D000194948600846406848600846406840F439
:1015E000806048600846406820F47C1048600846E7
:1015F000406840F4E81048600846006840F0807099
:10160000086000BF0C48006800F000700028F9D0A6
:101610000948406820F003000749486008464068D0
:1016200040F00200486000BF0348406800F00C0032
:101630000828F9D10CBD0000001002400020024033
:10164000042808D14FF0E021096941F004014FF06E
:10165000E022116107E04FF0E021096921F0040167
:101660004FF0E022116170477047000010B5134839
:10167000006840F0010011490860084640681049C0
:1016800008400E494860084600680E4908400B496A
:1016900008600846006820F480200860084640681A
:1016A00020F4FE0048604FF41F008860FFF753FFEE
:1016B0004FF000600449086010BD000000100240B7
:1016C0000000FFF8FFFFF6FE08ED00E0F0B50C4665
:1016D000154600220021068C4FF6FE773E40068418
:1016E000028B018C4FF60C7632407E1C06EA031604
:1016F0002E433243104EB0420ED0104EB0420BD0AB
:10170000B0F1804F08D00E4EB04205D00D4EB04221
:1017100002D00D4EB04206D14FF6FD76314044F076
:101720000106314305E04FF6F576314044F00106FD
:10173000314302830184F0BD002C0140003401409C
:101740000004004000080040000C0040F0B50C46CA
:101750001546002200210026078C4FF6EF7C07EA91
:101760000C070784028B018C4FF6FF7707EA0416FB
:1017700040F6FF473A404FF6FF7707EA03373A4310
:101780004FF6FF7707EA05273A43114FB8420ED0CC
:10179000104FB8420BD0B0F1804F08D00E4FB84276
:1017A00005D00E4FB84202D00D4FB84206D14FF6C9
:1017B000DF77394046F01007394305E04FF65F7791
:1017C000394044F01007394302830184F0BD000022
:1017D000002C01400034014000040040000800409B
:1017E000000C0040F0B50C461546002200210026F2
:1017F000078C4FF6FF6C07EA0C070784828B018C7D
:101800004FF6FF7707EA04264FF60C773A404FF67B
:10181000FF7707EA03172F433A43114FB8420ED020
:10182000104FB8420BD0B0F1804F08D00E4FB842E5
:1018300005D00E4FB84202D00D4FB84206D14FF638
:10184000FF57394046F48077394305E04FF2FF57A0
:10185000394044F48077394382830184F0BD00002D
:10186000002C01400034014000040040000800400A
:10187000000C0040F0B50C46154600220021002661
:10188000078C4EF6FF7C07EA0C070784828B018CDD
:101890004FF6FF7707EA043640F6FF473A404FF627
:1018A000FF7707EA05273A434FF6FF7707EA033742
:1018B0003A43114FB8420ED0104FB8420BD0B0F19E
:1018C000804F08D00E4FB84205D00E4FB84202D01C
:1018D0000D4FB84206D14DF6FF77394046F4805798
:1018E000394305E047F6FF57394044F48057394300
:1018F00082830184F0BD0000002C014000340140CF
:101900000004004000080040000C004010B5012118
:10191000044800F03FF818B10121024800F007F830
:1019200010BD000000100040CA4302827047CA4345
:101930000282704721B1028842F00102028004E075
:1019400002884FF6FE731A4002807047F0B50C46CD
:1019500015461E460021002200230189028B038CBC
:101960004FF6F877394021434FF6FC473A4040F2B2
:1019700001173A434FF6DD773B404FF6FF7707EA12
:1019800006172F433B43018102830384F0BD0146C8
:10199000888C704730B50246002000230024158A49
:1019A00005EA0103958905EA010413B10CB1012090
:1019B00000E0002030BD000070B505460C4624480C
:1019C00085420ED0234885420BD0B5F1804F08D018
:1019D0002148854205D02148854202D020488542D1
:1019E00000D100E000BF208850B92389A288618817
:1019F0002846FFF76BFEE188284600F0ABF925E0AA
:101A0000208804280AD12389A28861882846FFF704
:101A10009DFEE188284600F0A6F917E020880828F6
:101A20000AD12389A28861882846FFF7DBFEE18876
:101A3000284600F0A5F909E02389A2886188284694
:101A4000FFF718FFE188284600F0A3F970BD0000F9
:101A5000002C014000340140000400400008004018
:101A6000000C004000210180418001218180002183
:101A7000C180018170471AB183890B43838102E0E1
:101A800083898B438381704770B500240022002333
:101A9000058C4FF6FE7635400584028C8388048BD6
:101AA0004FF68F752C40B51E2C400D882C43751EAB
:101AB0002A400D892A434D882A43144DA8420BD051
:101AC000134DA84208D0134DA84205D0124DA8428C
:101AD00002D0124DA84213D14FF6F7752A404D8916
:101AE0002A434FF6FB752A408D882A434FF6FF653F
:101AF0002B404FF6FF552B408D892B43CD892B432F
:101B000083800483CD888586028470BD002C0140CB
:101B100000340140004001400044014000480140C1
:101B20000A460021018B4FF6F773194011430183D8
:101B30007047000070B5002400220023058C4FF68A
:101B4000EF7635400584028C8388048B48F6FF7558
:101B50002C404FF6FF452C400D884FF6FF7606EAE5
:101B600005252C434FF6DF752A400D8906EA051539
:101B70002A434D8806EA05152A43154DA84202D08E
:101B8000144DA8421DD14FF67F752A404D894FF65E
:101B9000FF7606EA05152A434FF6BF752A408D8861
:101BA00006EA05152A434FF6FF352B404FF2FF7525
:101BB0002B408D8906EA85052B43CD8906EA8505EC
:101BC0002B4383800483CD880587028470BD000089
:101BD000002C0140003401400A460021018B4FF2E5
:101BE000FF7319404FF6FF7303EA02231943018381
:101BF0007047000070B5002400220023058C4FF6CA
:101C0000FF6635400584028C8388848B4FF68F7580
:101C10002C404FF6FC752C400D882C434FF6FF5599
:101C20002A400D894FF6FF7606EA05252A434D889E
:101C300006EA05252A43154DA84202D0144DA842B4
:101C40001DD14FF2FF752A404D894FF6FF7606EA07
:101C500005252A434FF6FF352A408D8806EA0525DB
:101C60002A434EF6FF752B404DF6FF752B408D89AC
:101C700006EA05152B43CD8906EA05152B4383801B
:101C80008483CD888587028470BD0000002C0140CC
:101C9000003401400A460021818B4FF6F77319404A
:101CA000114381837047000070B500220023002497
:101CB000058C4EF6FF7635400584038C8488828B34
:101CC00048F6FF752A404FF6FF452A400D884FF62B
:101CD000FF7606EA05252A434DF6FF752B400D8950
:101CE00006EA05352B434D8806EA05352B430B4D97
:101CF000A84202D00A4DA84208D14BF6FF752C40ED
:101D00008D894FF6FF7606EA85152C438480828301
:101D1000CD88A0F84050038470BD0000002C014025
:101D2000003401400A460021818B4FF2FF731940B5
:101D30004FF6FF7303EA02231943818370478186BC
:101D400070470187704781877047A0F8401070473F
:101D500081847047028B4FF6F3731A400283028B23
:101D60000A4302837047028B4FF2FF331A4002830B
:101D7000028B4FF6FF7303EA01231A430283704775
:101D8000828B4FF6F3731A408283828B0A438283DD
:101D90007047828B4FF2FF331A408283828B4FF65B
:101DA000FF7303EA01231A438283704700220288EB
:101DB0001D4B98420ED01D4B98420BD0B0F1804F76
:101DC00008D01B4B984205D01A4B984202D01A4BB0
:101DD000984204D14FF68F731A404B881A43174B21
:101DE000984207D0164B984204D04FF6FF431A4052
:101DF000CB881A4302808B8883850B8803850A4B26
:101E000098420BD0094B984208D00E4B984205D00F
:101E10000D4B984202D00D4B984201D10B7A0386AC
:101E20000123838270470000002C014000340140F0
:101E30000004004000080040000C0040001000407A
:101E400000140040004001400044014000480140AF
:101E50002DE9F84F05460026124807681248D0F8C9
:101E6000008012480068012803D10F48D0F8008094
:101E700001E04FF00008284605F040F9834641464E
:101E800005F09CF982463946304605F097F95146EF
:101E9000009004F093FF814605F0F4F804462046D4
:101EA000BDE8F88F9C000020A0000020E800002082
:101EB00010B540F225511D4800F073F910B31B48CE
:101EC00000F02AFA04461A48008800F40040C8B915
:101ED0001748008800F4804060B10A2C03D000202D
:101EE0001349088020E01248008840F4004010495F
:101EF000088019E00D2C06D10D48008840F4804080
:101F00000B49088010E00A490988C1F30D01094A0C
:101F1000545407480088401C05490880084600883A
:101F2000C72801DD0020088010BD000000380140F6
:101F3000040200202802002010B540F22551264856
:101F400000F02FF9002846D040F22551224800F039
:101F50000DF9214800F0E0F9C4B22048007828B912
:101F60001C2C03D101201D49087034E01B48007867
:101F7000012808D12C2C06D1022018490870002015
:101F80001749087027E015480078022820D1144826
:101F900001780078401C124A1070124820F8114055
:101FA00010460078042816DD00200C4908700D4802
:101FB000C088FF280FD10B4800880B4908600948EA
:101FC00040880A490860074880880949086002E09B
:101FD00000200249087010BD004400405900002054
:101FE000580000200C0200204C000020500000206F
:101FF0005400002010B586B0044601214804FFF7C4
:10200000A9F901210420FFF7B5F90420ADF8140067
:1020100003208DF8160018208DF8170005A91C481C
:10202000FEF7BAFC0820ADF8140004208DF8170064
:1020300005A91748FEF7B0FC26208DF810000220F5
:102040008DF811008DF8120001208DF8130004A8FE
:10205000FFF73CF900940020ADF80400ADF806004D
:10206000ADF80800ADF80C000C20ADF80A00694688
:10207000084800F0E5F8012240F22551054800F03B
:10208000BAF80121034800F080F806B010BD000046
:10209000000801400044004010B540F225510548B9
:1020A00000F07FF820B140F22551024800F05EF8C0
:1020B00010BD00000048004010B586B00446012164
:1020C0008804FFF747F901211120FFF753F9012197
:1020D0002348FEF7EDFC4FF48060ADF814000320B8
:1020E0008DF8160018208DF8170005A91D48FEF779
:1020F00053FC4FF40060ADF8140004208DF8170075
:1021000005A91848FEF748FC27208DF8100000208C
:102110008DF811008DF8120001208DF8130004A82D
:10212000FFF7D4F800940020ADF80400ADF80600E5
:10213000ADF80800ADF80C000C20ADF80A006946B7
:10214000094800F07DF8012240F22551064800F0D0
:1021500052F80121044800F018F806B010BD000044
:1021600010001400001001400048004010B500228B
:10217000002340F66A14A14200D100BF0A120124D4
:102180009440A3B2DC43048010BD21B1828942F4A3
:102190000052828104E082894DF6FF731A408281E9
:1021A000704770B50246002400230025002040F649
:1021B0006A16B14200D100BFC1F3421501F01F03FE
:1021C000012606FA03F3012D02D19689334006E079
:1021D000022D02D1168A334001E0968A33400C1258
:1021E000012606FA04F41688344013B10CB101201C
:1021F00000E0002070BDF0B5034600240026002555
:10220000002040F66A17B94200D100BF1846C1F35A
:10221000421401F01F06012707FA06F5012C01D12F
:102220000C3004E0022C01D1103000E014301AB15F
:1022300007682F43076002E00768AF430760F0BDFF
:102240002DE9F04786B005460E460024A24600BFA1
:10225000A1460027B08900B100BF2F462C8A4CF65A
:10226000FF700440F08804432C82AC894EF6F310D2
:102270000440B08831890843718908430443AC8124
:10228000AC8A4FF6FF400440B0890443AC8201A8F9
:10229000FFF780F81F48874202D1DDF810A001E067
:1022A000DDF80CA0A88900F4004040B10AEBCA0098
:1022B00000EB0A1031684900B0FBF1F807E00AEBC7
:1022C000CA0000EB0A1031688900B0FBF1F8642005
:1022D000B8FBF0F004012009642101FB1089A889F2
:1022E00000F4004040B1322000EBC900B0FBF1F037
:1022F00000F00700044308E0322000EB09106421DD
:10230000B0FBF1F000F00F0004432C8106B0BDE8F3
:10231000F08700000038014001468888C0F30800BB
:10232000704700BFFEE700002DE9F14F66480068E6
:1023300058B96648006840B96548006828B96548DA
:10234000006810B96448006838B10020634908602B
:10235000634908606349086009E04FF082405F49C3
:10236000086080015E49086000205E4908605A48A4
:10237000006848B15C48594908604FF080405849AE
:1023800008600120594908605248006848B1564821
:10239000524908604FF0804051490860012053497C
:1023A00008604B48006848B14F484C4908604FF0FE
:1023B00080404B49086001204C4908604348006850
:1023C00048B14948454908604FF080404449086099
:1023D0000120464908604648006848B142483F49E4
:1023E00008604FF080403E49086001203F49086086
:1023F000009804F083FE054638480168284604F03A
:10240000DAFF044604F03EFE3A4908603A480068A4
:1024100004F0B7F906464FF06632384B04F0C8F9BD
:1024200004460D463348006804F0ABF906464FF009
:102430003332334B04F0BCF9804622462B4603F07E
:1024400069FF824604F06EF92E490860084600686C
:10245000294908602C4800682A49096808442A4923
:1024600008600846006842F21071884202DD0846A2
:1024700025490860244800682449884202DA084651
:10248000214908602048006804F038FE07461448D7
:102490000168384604F092FE05461648006804F0CC
:1024A0002DFE07460F480168384604F087FE0646B1
:1024B000294604F083FC044604F0E4FD1449086056
:1024C00008460068BDE8F88FE4000020D80000202E
:1024D000DC000020D0000020D4000020F801002003
:1024E00098000020940000200000C040CC00002094
:1024F000E0000020E4010020EC0100206666E63FD9
:102500003333D33FE8010020F0010020F0D8FFFF73
:10251000F40100202DE9F05F0446002780480068A0
:1025200001282AD17F480068012826D17E4F7F4D9F
:102530007F4E20467F4908607F480068096808444C
:102540007D49086008460068FEF7FEF94FF2244115
:10255000884212DD00250026002076490860764971
:1025600008607649086076490860764908607649CF
:1025700008606B4908606B4908607348006801286F
:102580002AD168480068012826D1704F674D684EEF
:102590002046684908606848006809680844664938
:1025A000086008460068FEF7CFF94FF224418842E0
:1025B00012DD0025002600205E4908605E490860A3
:1025C0005E4908605E4908605E4908605E490860CF
:1025D000534908605349086059480068012829D1C7
:1025E00050480068012825D14F4F504D504E20468D
:1025F0005049086050480068096808444E4908601E
:1026000008460068FEF7A0F95149884212DD00250E
:10261000002600204749086047490860474908608C
:102620004749086047490860474908603C490860D5
:102630003C49086041480068012829D139480068B0
:10264000012825D1414F394D394E2046394908607E
:102650003948006809680844374908600846006836
:10266000FEF772F93A49884212DD00250026002063
:1026700030490860304908603049086030490860D6
:1026800030490860304908602549086025490860DC
:102690002C480068012829D122480068012825D14A
:1026A000214F224D224E20462249086022480068D0
:1026B000096808442049086008460068FEF744F9A4
:1026C0002449884212DD00250026002019490860AF
:1026D00019490860194908601949086019490860D2
:1026E000194908600E4908600E490860204604F048
:1026F00005FD8346314604F061FD81462946384692
:1027000004F05CFD8246494604F058FB804604F024
:10271000B9FC1149086008460068BDE8F09F000058
:10272000DC000020CC0000200000C8420000A0C156
:1027300000002041D8010020DC010020D000002052
:10274000D4000020E0000020D80000200000C8C213
:10275000E8F70100D0EF0300E0010020490050EA53
:10276000C12018BF04204A0D18BF40F0010040F2FC
:10277000FF72B2EB515F08BF40F00200012808BFB2
:10278000052070472DE9F0414F1E00EBC7010446BC
:10279000D1E9000115461E4637F006020DD02A4643
:1027A000334604F005F87F1E04EBC703D3E900238A
:1027B00003F0B0FD37F00602F1D1022F25D0042F2F
:1027C00013D0062F18BFBDE8F0812A46334603F028
:1027D000EFFFD4E90A2303F09DFD2A46334603F0B8
:1027E000E7FFD4E9082303F095FD2A46334603F0BA
:1027F000DFFFD4E9062303F08DFD2A46334603F0BC
:10280000D7FFD4E9042303F085FD2A46334603F0BD
:10281000CFFFD4E9022303F07DFD2A46334603F0BF
:10282000C7FFD4E90023BDE8F04103F073BD0122E6
:1028300004F073BE03F06EBD00221346104611462D
:1028400003F018BE024A0020110704F066BE000023
:1028500001FDFFFF00BF70472DE9FE4F06460F4602
:102860000025684601F0CEF9002442E056F8240025
:1028700057F82410A0EB010ABAF1000F01DB514612
:1028800001E0CAF10001084604F038FC83464FF02D
:102890008F4104F001FB80465DF82400002104F024
:1028A000BDFB16D05DF82410404604F0F5FA8246D0
:1028B0004FF07E5104F08AFD814629F0004A0F480E
:1028C000416A504604F046FD12D20120A040054363
:1028D0000EE00A48C169404604F03CFC05D30748B5
:1028E000016A404604F036FD02D20120A0400543B3
:1028F000641C032CBADB2846BDE8FE8FC4810008A7
:102900002DE9F04D8D4F21F0004A86B005460C466A
:10291000BA452ADBAAEB070028430AD0884882453B
:1029200001DC1AD1CDB106B02846BDE8F04DFFF765
:102930007EBF844A844B284603F03AFF07460E4682
:10294000824A834B2846214603F032FF06B03A46BE
:102950003346BDE8F04D03F0DDBC0120FDF74FFD2F
:1029600006B0BDE8F04DFFF767BF7A48824542DA0E
:10297000BAF1795F0BDA2846FFF7F0FE042808BFAA
:10298000FFF760FF284606B02146BDE8F08D2A46D5
:102990000B46104603F00CFF834602466E480E4677
:1029A0000B4606217844FFF7EDFE5A46334603F006
:1029B000FFFE804669488A465A46334604217844D9
:1029C000FFF7E0FE5A46334603F0F2FE00223B4694
:1029D00003F0A0FC02460B464046514603F04AFD78
:1029E0002A46234603F0E4FE06B02A462346BDE805
:1029F000F04D03F08FBC284624F0004100223D46F4
:102A00003B4603F0D3FF4FF0FF3204F086FD06464D
:102A1000024653480F460B4606217844FFF7B2FEA4
:102A200032463B4603F0C4FECDE900014D48324634
:102A30003B4604217844FFF7A5FE32463B4603F0AF
:102A4000B7FE00222B4603F065FC83460291304618
:102A5000394603F0B7FB804643480D46504517DC26
:102A6000DDE900015A46029B03F004FD42462B4675
:102A700003F09EFE42462B4603F04CFC012204F07C
:102A80004CFD304A304B04F083F8304A304B4CE078
:102A90004FF0000A52460B46404603F03BFCCDE99E
:102AA000031052462B461046194603F081FE32466B
:102AB0003B4603F07BFFDDE9033203F0DBFC064617
:102AC0000F46DDE900015A46029B03F0D3FC834622
:102AD000009101223046394604F01FFD194A1A4B75
:102AE00003F064FF06460F4601224046294604F0E3
:102AF00014FD5A46009B03F05BFE32463B4604F051
:102B000047F806460F4601225046294604F005FDC7
:102B10000E4DDFF858802A46434603F047FF324601
:102B20003B4603F043FF2A46434603F03FFF002C99
:102B3000D8BF81F0004106B0BDE8F08D0000F03F45
:102B40000000F07F075C143326A6913C182D4454F6
:102B5000FB21F93F0000E03F485800005E580000AC
:102B6000D2570000E85700003333EF3FFB21E93F25
:102B70002DE9F84F04460D4621F0004000917349BD
:102B8000814211DC7249884201DC06D12CB1204619
:102B90002946BDE8F84FFFF74ABE6E48002DCCBF6E
:102BA0006D496E49BDE8F88F6D49814211DD6D496F
:102BB0008142D8BF4FF0FF366DDD20462946FFF732
:102BC000CDFD042808BFFFF73DFE20462946BDE89D
:102BD000F88F6549654F25F00045814233DD644932
:102BE000814219DD002632464FF0804320462946B7
:102BF00003F090FB80468A4601222046294604F0D5
:102C00008CFC00223B4603F0C3FF4246534603F0D0
:102C100031FC04460D463EE001260022BA463B4602
:102C20002046294603F076FB80460F460022534695
:102C30002046294603F0ACFF42463B4603F01AFC0F
:102C400004460D4627E04B4981421BDDDFF828A1F1
:102C50000226002253462046294603F0A9FD002201
:102C60003B4603F057FB80460F4600225346204662
:102C7000294603F08DFF42463B4603F0FBFB04462A
:102C80000D4608E0032622462B4600203B4903F070
:102C9000F1FB04460D4622462B461046194603F02A
:102CA00087FD8B46824602460B4603F081FD0746B0
:102CB0000246334888460B4606217844FFF762FDFA
:102CC00052465B4603F074FD82462E488B463A46D8
:102CD000434605217844FFF755FD3A46434603F045
:102CE00067FD02460B46002E504659460CDA03F0AB
:102CF00011FB22462B4603F05BFD01B022462B461A
:102D0000BDE8F04F03F052BE03F004FB22462B4611
:102D100003F04EFD1C4A7A4402EBC603D3E90023BC
:102D200003F036FF22462B4603F032FF174A7A445F
:102D300002EBC603D3E9002303F038FE009A002A11
:102D4000B8BF81F00041BDE8F88F000000001044DA
:102D50000000F07F182D4454FB21F93FFB21F9BFFF
:102D60000000DC3F0000203E0000F33F0000F03F89
:102D70000000E63F008003400000F83F0000F0BF85
:102D8000EA550000A8550000465500000E55000009
:102D90002DE9F04D9446CCF1000423F000464CEAB6
:102DA0000404524F46EAD4749A46884621F0004201
:102DB000BC4206D8454240EA050442EAD474BC420B
:102DC00004D9BDE8F04D6246FFF734BDAAF1405585
:102DD000A5F17F6555EA0C040BD0022404EAAA741D
:102DE000434DDFF810E144EAD87452EA000B04D0F6
:102DF0000CE0BDE8F04DFFF7BBBE002C14BF012C6A
:102E0000BDE8F08D022C30D0032C32D056EA0C0BEA
:102E10000AD0BE4220D1BA4209D126F0804622F023
:102E200080423346114617E000291ADB25E0DFF81F
:102E3000C8B0FB44002C04BFDBE90001BDE8F08D05
:102E4000012C02BFDBE9000181F00041BDE8F08DFB
:102E5000022C0AD0032C0CD0BA4212D1B8F1000FC8
:102E60000BDA23482549BDE8F08D28462449BDE802
:102E7000F08D28467146BDE8F08D1D482149BDE81A
:102E8000F08D921B12153C2AC4BF19481D490EDC57
:102E9000BAF1000FBEBF12F13C0F0020014606DB65
:102EA000624603F0E7FA21F00041FFF761FE002CD3
:102EB00008BFBDE8F08D012C04BF81F00041BDE8E2
:102EC000F08D114A114B022C07D003F061FE2A4607
:102ED000BDE8F04D0A4B03F05BBE03F059FE2A46F5
:102EE000BDE8F04D064B03F061BD00000000F07F2F
:102EF000182D4454FB2109C0A2540000FB21F9BF46
:102F0000FB210940FB21F93F075C143326A6A13CB5
:102F10002DE9F0410446E07800F0C006E07800F0CA
:102F20003F05607800F0010098B1EF102846E917DE
:102F300005EB5171C910A5EBC101491C01F0FF0857
:102F40000B48006820B10A4841460268384690475D
:102F500000BF607800F0080030B10548406818B143
:102F6000B011034A516888470020BDE8F081000095
:102F70001802002010B56FF00400FEF761FB0A484C
:102F800000680A49B0FBF1F009490870084600786A
:102F900000EB4001C1EBC0104FF6FF7101EAC00029
:102FA0000449088010BD00002400002000127A00AF
:102FB000FC010020FE0100200146114A12884A430C
:102FC0004FF0E0235A6100229A611A46126942F0DA
:102FD00001021A6100BF4FF0E022106900F0010207
:102FE0001AB100F48032002AF5D04FF0E0221269C5
:102FF00022F001024FF0E0231A6100229A6170472B
:10300000FE0100200146114A12784A434FF0E023A6
:103010005A6100229A611A46126942F001021A614D
:1030200000BF4FF0E022106900F001021AB100F475
:103030008032002AF5D04FF0E022126922F001021E
:103040004FF0E0231A6100229A617047FC010020D2
:1030500038B5044664B120208DF8000028208DF892
:10306000010030208DF8020038208DF8030004E0C4
:10307000A32204216846FDF73AF96A46042140F686
:103080009E2002F0CDFF02F0B7FB38BD3EB50446EE
:1030900002208DF80000CA208DF80100E3208DF891
:1030A000020009208DF803006A460421682002F01E
:1030B000B7FFA3208DF8000004F0400048B1C02005
:1030C0008DF80100C8208DF80200C2208DF80300A1
:1030D00006E0A3208DF801008DF802008DF80300B2
:1030E00004F4C07048B1C4208DF80400CC208DF8E1
:1030F0000500C6208DF8060006E0A3208DF8040028
:103100008DF805008DF80600A3208DF807008DF8D6
:1031100008008DF809006A460A2140F6A72002F04F
:103120007FFF04F0030018B120208DF8000002E0BA
:10313000D8208DF800006A46012140F6B62002F042
:103140006FFF04F0200018B1012000F0ADF802E09C
:10315000002000F0A9F804F4C07008B304F48070F3
:1031600060B1B2208DF800008B208DF80100B620F0
:103170008DF802009B208DF803000BE0B0208DF845
:10318000000080208DF80100B4208DF8020090200E
:103190008DF803006A46042140F6A22002F040FFA9
:1031A00004F0010020B3F8208DF800006A460121E8
:1031B0004FF40B6002F034FFFA21072000F02CFCE2
:1031C000072000F0F3FB012000F013FC642000F066
:1031D000F3FC4FF4FA7000F002FDC821304800F013
:1031E000A3FB282000F0BCFB0A2000F0CCFB08E089
:1031F000D8208DF800006A4601214FF40B6002F0E0
:103200000FFF04F0020018B1D9208DF8000002E091
:10321000D8208DF800006A46012140F23D7002F08E
:10322000FFFE04F0040018B1012000F069F802E08C
:10323000002000F065F804F0100018B10120FFF73D
:1032400007FF02E00020FFF703FF44F008001549E4
:10325000488102F0D1FA00201249887304F040003E
:1032600018B10846807B801D887304F4C07020B1BB
:103270000C48807B801D0B49887304F0140020B13A
:103280000848807B10300749887304F0030020B1A0
:103290000448807B001D0349887300203EBD000068
:1032A00009E3CA02180200203EB504466CB10EA123
:1032B000D1E900208968CDE9002002916A46092100
:1032C0004FF4976002F0ACFE3EBD0AA2D2E90010B6
:1032D0009268CDE9010200916A4609214FF4976096
:1032E00002F09EFEF0E70000B8AAB38DB4980D3549
:1032F0005D000000B8AAAAAAB088C3C5C700000034
:1033000038B5044664B1C0208DF80000C2208DF8A5
:103310000100C4208DF80200C6208DF8030004E0EF
:103320008B2204216846FCF7E2FF6A46042140F63E
:10333000982002F075FE02F05FFA38BD10B5C82380
:103340004FF48062024940F6F63002F0E9F810BD11
:10335000A67500082DE9F04F8DB007468846154642
:103360009946DDE9166B0024002030806B49887B8C
:103370005A4605A902F0A0F918B1601E0DB0BDE8CB
:10338000F08F6648807A00F01400002867D09DF81E
:10339000140000069DF8151040EA01409DF8161033
:1033A00040EA01209DF81710084328609DF8180096
:1033B00000069DF8191040EA01409DF81A1040EAF5
:1033C00001209DF81B10084368609DF81C00000652
:1033D0009DF81D1040EA01409DF81E1040EA0120B2
:1033E0009DF81F100843A8609DF8200000069DF876
:1033F000211040EA01409DF8221040EA01209DF88A
:1034000023100843E86004F11000C4B228680014D7
:103410000190686800140290A86800140390E8689E
:103420000014049001984043029901FB01000399A4
:1034300001FB0100049901FB010ABAF1706F02DB84
:10344000BAF1885F05DD02F0D7F900203080401E18
:1034500094E7B6F9000040F48070308000BF2F4838
:10346000807A00F0400020B305A9601C085C095D6B
:1034700040EA012000B2A8F8000005A9E01C095CA0
:1034800005AAA01C105C41EA002000B2A8F80200C6
:1034900005A9601D095C201D105C41EA002000B2F6
:1034A000A8F80400A01DC4B2B6F9000040F008005E
:1034B00030801A48408900F4C07008B305A9601C28
:1034C000085C095D40EA012000B2388005A9E01CD3
:1034D000095C05AAA01C105C41EA002000B27880BB
:1034E00005A9601D095C201D105C41EA002000B2A6
:1034F000B880A01DC4B2B6F9000040F07000308062
:103500000648807A00F0030018B105A90819FFF7F2
:10351000FFFC484601F0CAFC00202FE718020020FB
:1035200070B588B0064601A801F07EFEBDF8040023
:103530000021C90341EA5045C4034448007A00F021
:10354000030056F8200005904048007A00F004007F
:1035500010B10598404205903C48007AC0F3C10084
:1035600056F8200006903948007A00F0200010B18B
:103570000698404206903548007AC0F3811056F80C
:10358000200007903148008900F4807010B107983E
:10359000404207900598C117A0FB042301FB0431AA
:1035A00000FB0510810041EA927005900698C11752
:1035B000A0FB042301FB043100FB0510810041EA5C
:1035C000927006900798C117A0FB042301FB0431F9
:1035D00000FB0510810041EA927007900598000EEB
:1035E0008DF808000598000C8DF809000598000A70
:1035F0008DF80A000598C0B28DF80B000698000EF1
:103600008DF80C000698000C8DF80D000698000A45
:103610008DF80E000698C0B28DF80F000798000EC6
:103620008DF810000798000C8DF811000798000A1B
:103630008DF812000798C0B28DF8130002AA0C2171
:103640004FF4257002F0ECFC08B070BD18020020A9
:1036500030B585B0044616A207CA02AB07C3C82C12
:1036600003DD4FF0FF3005B030BDC82090FBF4F013
:10367000401E85B2280A8DF80000E8B28DF80100DE
:103680006A46022140F2162002F0CAFC10B14FF047
:10369000FF30E8E702AA0C2140F6C12002F0C0FC8E
:1036A00010B14FF0FF30DEE7044884810020DAE7F4
:1036B000FEF2ABC4AAF1DFDFBBAFDFDF18020020F0
:1036C0001FB504464848007A00F0030054F8200073
:1036D00001904548007A00F0040010B10198404282
:1036E00001904148007AC0F3C10054F820000290D4
:1036F0003D48007A00F0200010B10298404202904C
:103700003948007AC0F3811054F8200003903648FD
:10371000008900F4807010B103984042039033494F
:10372000019880FB0101800F40EA810001902F4940
:10373000029880FB0110820042EA917002902B49AE
:10374000039880FB0110820042EA91700390019877
:10375000000E8DF800000198000C8DF80100019812
:10376000000A8DF802000198C0B28DF803006A4685
:1037700004214FF4747002F053FC18B14FF0FF3085
:1037800004B010BD0298000E8DF800000298000CE5
:103790008DF801000298000A8DF802000298C0B26C
:1037A0008DF803006A4604214FF4757002F038FC6E
:1037B00010B14FF0FF30E3E70398000E8DF80000E2
:1037C0000398000C8DF801000398000A8DF80200A0
:1037D0000398C0B28DF803006A4604214FF4767056
:1037E00002F01EFCCCE700001802002009E3CA0228
:1037F00010B586B0044647A00068039046A0006854
:10380000029046A00068019045A00068009004F076
:10381000030003A9085C8DF8140003A8C4F3C101D8
:10382000405C8DF8150003A8C4F38111405C8DF84D
:10383000160004F0030002A9085C8DF8100002A82D
:10384000C4F3C101405C8DF8110002A8C4F38111DA
:10385000405C8DF8120005AA032140F2264002F0D8
:10386000DFFB18B14FF0FF3006B010BD04AA0321F2
:1038700040F22A4002F0D4FB10B14FF0FF30F3E7E2
:10388000019805900098049004F0040058B19DF848
:10389000140040F001008DF814009DF8100040F075
:1038A00001008DF8100004F0200058B19DF81500BB
:1038B00040F001008DF815009DF8110040F0010066
:1038C0008DF8110004F4807058B19DF8160040F096
:1038D00001008DF816009DF8120040F001008DF8EF
:1038E000120005AA03214FF4886002F099FB10B181
:1038F0004FF0FF30B8E704AA032140F2314002F054
:103900008FFB10B14FF0FF30AEE706480481002076
:10391000AAE700004CCD6C000CC92C00365676008E
:103920002646660018020020F8B505460E464FF4FC
:103930007A7095FBF0F000FB06F4200E8DF8000085
:10394000200C8DF80100200A8DF80200E0B28DF8FD
:1039500003006A4604214FF4AE7002F061FBF8BD2B
:1039600038B50446052094FBF0F084B220128DF89F
:103970000000E0B28DF801006A4602214FF4AD70FC
:1039800002F04EFB38BD38B50446052094FBF0F03C
:1039900084B220128DF80000E0B28DF801006A4672
:1039A00002214FF4AC7002F03BFB38BD38B5044641
:1039B0000020009004F0010020B19DF8000040F0CC
:1039C0003000009004F0020020B19DF8000040F0AB
:1039D0000C00009004F0040020B19DF8000040F0BD
:1039E000030000906A4601214FF4A47002F018FB16
:1039F00038BD38B50446012C01DA012402E0042C5C
:103A000000DD0424601EC0B200906A46012140F22D
:103A10004F1002F005FB38BD2DE9FC4706460F4666
:103A200006F0070010B1B7F5C86F03DD4FF0FF30A7
:103A3000BDE8FC87384603F079FB8146594903F01D
:103A40002BFA8046684601F0C9FB9DF80000022869
:103A500006D0042816D0082826D0102848D135E0F2
:103A60004FF08D41404603F0A9FB814603F026FB51
:103A700084B24D49404603F0A1FB814603F01EFB92
:103A800085B238E04FF08C41404603F097FB814609
:103A900003F014FB84B24549404603F08FFB814696
:103AA00003F00CFB85B226E04FF08B41404603F05B
:103AB00085FB814603F002FB84B23D49404603F09A
:103AC0007DFB814603F0FAFA85B214E04FF08A419B
:103AD000404603F073FB814603F0F0FA84B23549A7
:103AE000404603F06BFB814603F0E8FA85B202E042
:103AF0004FF0FF309CE700BF20128DF80400E0B2C9
:103B00008DF8050028128DF80600E8B28DF8070040
:103B100006F00100A0B101AA02214FF4EA7002F000
:103B20007FFA10B14FF0FF3082E70DF1060202215B
:103B30004FF4927002F074FA10B14FF0FF3077E753
:103B400006F00200A0B101AA02214FF4EC7002F0CD
:103B500067FA10B14FF0FF306AE70DF1060202215B
:103B60004FF4947002F05CFA10B14FF0FF305FE751
:103B700006F00400A0B101AA02214FF4EE7002F099
:103B80004FFA10B14FF0FF3052E70DF1060202215B
:103B90004FF4967002F044FA10B14FF0FF3047E74F
:103BA000002045E700004843000040460000C045B3
:103BB000000040450000C04438B50446052094FB91
:103BC000F0F085B228128DF80000E8B28DF80100FF
:103BD0006A4602214FF4EF7002F022FA38BD38B580
:103BE0000446052094FBF0F085B228128DF8000001
:103BF000E8B28DF801006A4602214FF4ED7002F040
:103C00000FFA38BD7CB5054628494968087801ABEC
:103C100004220D21FDF711FA08B107207CBD9DF8A3
:103C20000700C0F301109DF8041001F0E00140EA24
:103C3000E1008DF800009DF80700C0F381009DF8B9
:103C4000051001F0E00140EAE1008DF801009DF867
:103C5000070000F003009DF8061001F0E00140EAC3
:103C6000E1008DF8020000241CE01DF8040018B9E2
:103C7000002045F8240013E00D4845F8240006E034
:103C800055F824000B4903F099FA45F824001DF873
:103C90000400401EC0B20DF804000028F0D100BF9F
:103CA000601CC4B2032CE0DB0020B7E75C000020FE
:103CB0007B14AE3E1D5A843F2DE9F04F87B0054678
:103CC0000C46914601208DF8100000208DF811005F
:103CD000FE4A1268917CFD4A5268107804AB0222B9
:103CE000FDF751FA20B14FF0FF3007B0BDE8F08F7B
:103CF000C820FFF761F900208DF81000F34A126820
:103D0000D17BF24A5268107804AB0122FDF73BFAEE
:103D100010B14FF0FF30E8E7EC4A12685179EB4AF6
:103D20005268107804AB0122FDF72DFA10B14FF064
:103D3000FF30DAE7E54A1268917CE44A526810786D
:103D400004AB0122FDF71FFA10B14FF0FF30CCE7B2
:103D5000DE4A1268D17DDD4A5268107804AB012238
:103D6000FDF711FA10B14FF0FF30BEE7D74A1268E5
:103D70001179D64A5268107804AB0122FDF703FA94
:103D800010B14FF0FF30B0E70C208DF81000CF4A93
:103D900012681179CD4A5268107804AB0122FDF700
:103DA000F2F910B14FF0FF309FE70F20FFF704F951
:103DB000C648806A407A8DF81000C44A126891782B
:103DC000C24A5268107804AB0122FDF7DCF910B149
:103DD0004FF0FF3089E7BD48806A007A8DF8100007
:103DE000BA4A12685178B94A5268107804AB012275
:103DF000FDF7C9F910B14FF0FF3076E7B9F1000FC8
:103E000007D0B248806A807A40F0E0008DF8100058
:103E100004E0AE48806A807A8DF81000AB4A1268E0
:103E20009179AA4A5268107804AB0122FDF7ABF9E8
:103E300010B14FF0FF3058E7B9F1000F07D0A34899
:103E4000806AC07A40F0E0008DF8100003E0A048DE
:103E5000C07A8DF810009D4A1268D1799B4A526849
:103E6000107804AB0122FDF78EF910B14FF0FF304E
:103E70003BE7B9F1000F02D0C820FFF79DF84020C2
:103E80008DF81000914A12681179904A52681078A2
:103E900004AB0122FDF777F910B14FF0FF3024E7B2
:103EA00078208DF81000894A12685179874A526843
:103EB000107804AB0122FDF766F910B14FF0FF3026
:103EC00013E783498889FFF777F800208DF8100001
:103ED0007E4A126851797D4A5268107804AB0122FB
:103EE000FDF751F910B14FF0FF30FEE6774A126846
:103EF000917A764A5268107804AB0222FDF79DF859
:103F000010B14FF0FF30F0E69DF811009DF8101051
:103F100040EA012B0C209BFBF0F0C6B20020A86009
:103F200068602860A06060602060824665E0674A43
:103F30001268D17A654A5268107804AB0C22FDF7FA
:103F40007CF810B14FF0FF30CFE69DF811009DF8DE
:103F5000101040EA012000B2ADF808009DF81300EF
:103F60009DF8121040EA012000B2ADF80A009DF859
:103F700015009DF8141040EA012000B2ADF80C00C5
:103F8000BDF90810206808442060BDF90A10606877
:103F900008446060BDF90C10A0680844A0609DF85A
:103FA00017009DF8161040EA012000B2ADF800009D
:103FB0009DF819009DF8181040EA012000B2ADF8F4
:103FC00002009DF81B009DF81A1040EA012000B283
:103FD000ADF80400BDF90010286808442860BDF958
:103FE0000210686808446860BDF90410A8680844B5
:103FF000A8600AF1010000F0FF0AB24597DB3448DF
:10400000D0F800C02868C117090441EA104107042C
:10401000624600233846FCF71AF932460023CDE900
:104020000201FCF714F928602948D0F800C068683C
:10403000C117090441EA10410704624600233846CB
:10404000FCF705F932460023CDE90201FCF7FFF841
:1040500068601F48D0F800C0A868C117090441EA89
:1040600010410704624600233846FCF7F0F8324658
:104070000023CDE90201FCF7EAF8A8601448D0F863
:1040800004C02168C817000440EA11480F046246C2
:10409000002338464146FCF7DAF832460023CDE9E2
:1040A0000201FCF7D4F820600948D0F804C0606829
:1040B000C117090441EA104107046246002338464B
:1040C000FCF7C5F83246002304E000005C00002045
:1040D000C4810008CDE90201FCF7B9F8606011481D
:1040E000D0F804C0A068C117090441EA10410704D0
:1040F000624600233846FCF7AAF832460023CDE991
:104100000201FCF7A4F8A060A068002804DDA06804
:10411000A0F58030A06003E0A06800F58030A060CA
:104120000020E2E5C48100082DE9FC5F06460F4649
:1041300000253D494968087801AB03220D21FCF7B1
:104140007CFF10B10720BDE8FC9F9DF8040000F043
:104150001F008DF804009DF8050000F01F008DF889
:1041600005009DF8060000F01F008DF806000024F1
:1041700056E056F8240057F82410A0EB010BBBF1D1
:10418000000F01DB594601E0CBF10001084602F0C7
:10419000B5FF4FF08F41009002F07EFE814601A8EE
:1041A000005D68B32149086802F0C0FF83465946A4
:1041B0001F4802F071FE804604E01E49404602F0AE
:1041C000FDFF804601A8005D401EC0B201A9085550
:1041D0000028F2D14146484602F05EFE83464FF089
:1041E0007E5103F0F3F882462AF0004B0F488169B4
:1041F000584603F0AFF812D20120A04005430EE06C
:104200000A480169484602F0A5FF05D307484169FD
:10421000484603F09FF802D20120A0400543641CE9
:10422000032CA6DB28468EE75C000020C481000832
:1042300000B04C4554E3853F10B50446204600F0DD
:104240000FF80346E01C00F00BF843EAC00083B20D
:10425000A01D00F005F843EA801083B2184610BD97
:10426000014691F90020002A01DD00201EE091F9AD
:104270000020002A01DA042018E091F90120002A28
:1042800001DD012012E091F90120002A01DA052068
:104290000CE091F90220002A01DD022006E091F9EC
:1042A0000220002A01DA062000E007207047000003
:1042B00010B54548007848B90020444908600120FD
:1042C0004349086040490870424908704248006804
:1042D000F3280DD13F480078012809D13F480078E4
:1042E00030B901203E4908603C4908703D490870DA
:1042F0003C48007801280CD10020364908703A4922
:10430000086800EBD071394A126802EB6101374A44
:104310001160364800683649096888421CDB002075
:104320003049087033480078B0B90120324908603C
:104330002649086000210846FDF7B8F841F28830A8
:10434000FEF73AFE00202149086025490860012057
:1043500028490870294908701F480068F2280DD1C3
:1043600026480078012809D12548007830B9012075
:104370001B490860224908702249087021480078CA
:1043800001280CD100201D4908701749086800EB6E
:10439000D0711D4A126802EB61011B4A11601A4874
:1043A00000681A49096888420DDB00201549087029
:1043B0001748007838B900200949086001200349EE
:1043C00008601349087010BDFC000020E4000020C4
:1043D000E0000020F800002054000020FD00002034
:1043E000EC000020F9000020C000002004010020A3
:1043F00008010020FE000020D8000020FA00002064
:10440000FF000020FB0000200C0100201001002014
:104410000001002010B54448007830B9012043491C
:104420000860414908704249087042480068F32812
:104430000DD13F480078012809D13F48007830B9B4
:1044400001203E4908603C4908703D4908703C48DD
:10445000007801280CD100203549087039490868D6
:1044600000EBD071384A126802EB6101364A1160E4
:10447000354800683549096888421CDB002030490E
:10448000087033480078B0B90120324908603249D9
:10449000086000210846FDF709F841F28830FEF770
:1044A0008BFD00202C490860244908600120284920
:1044B00008702A4908701F480068F2280DD1274863
:1044C0000078012809D12648007830B901201B491D
:1044D00008602349087023490870224800780128A1
:1044E0000CD100201D4908701649086800EBD071F6
:1044F0001D4A126802EB61011B4A11601A480068EC
:104500001A49096888420DDB0020164908701848CE
:10451000007838B900200949086001200E49086078
:104520001349087010BD000018010020E0000020B1
:10453000140100205400002019010020EC0000208C
:1045400015010020C00000202001002024010020CF
:104550001A010020DC000020E400002016010020E9
:104560001B01002017010020280100202C01002041
:104570001C01002010B54448007830B9012043499F
:104580000860414908704249087042480068F328B1
:104590000DD13F480078012809D13F48007830B953
:1045A00001203E4908603C4908703D4908703C487C
:1045B000007801280CD10020354908703949086875
:1045C00000EBD071384A126802EB6101364A116083
:1045D000354800683549096888421CDB00203049AD
:1045E000087033480078B0B9012032490860324978
:1045F000086000210846FCF759FF41F28830FEF7B9
:10460000DBFC00202C49086024490860012028496F
:1046100008702A4908701F480068F2280DD1274801
:104620000078012809D12648007830B901201B49BB
:10463000086023490870234908702248007801283F
:104640000CD100201D4908701649086800EBD07194
:104650001D4A126802EB61011B4A11601A4800688A
:104660001A49096888420DDB00201649087018486D
:10467000007838B900200949086001200E49086017
:104680001349087010BD000034010020E000002034
:10469000300100205400002035010020EC000020F3
:1046A00031010020C00000203C010020400100201A
:1046B00036010020D0000020E4000020320100205C
:1046C0003701002033010020440100204801002070
:1046D0003801002010B54448007830B90120434922
:1046E0000860414908704249087042480068F32850
:1046F0000DD13F480078012809D13F48007830B9F2
:1047000001203E4908603C4908703D4908703C481A
:10471000007801280CD10020354908703949086813
:1047200000EBD071384A126802EB6101364A116021
:10473000354800683549096888421CDB002030494B
:10474000087033480078B0B9012032490860324916
:10475000086000210846FCF7A9FE41F28830FEF708
:104760002BFC00202C4908602449086001202849BE
:1047700008702A4908701F480068F2280DD12748A0
:104780000078012809D12648007830B901201B495A
:1047900008602349087023490870224800780128DE
:1047A0000CD100201D4908701649086800EBD07133
:1047B0001D4A126802EB61011B4A11601A48006829
:1047C0001A49096888420DDB00201649087018480C
:1047D000007838B900200949086001200E490860B6
:1047E0001349087010BD000050010020E0000020B7
:1047F0004C0100205400002051010020EC0000205A
:104800004D010020C0000020580100205C01002064
:1048100052010020D4000020E40000204E010020BE
:10482000530100204F01002060010020640100209E
:104830005401002010B54348007830B901204249A6
:104840000860404908704149087041480068F328F1
:104850000DD13E480078012809D13E48007830B992
:1048600001203D4908603B4908703C4908703B48BD
:10487000007801280CD100203449087038490868B4
:1048800000EBD071374A126802EB6101354A1160C2
:10489000344800683449096888421ADB00202F49EF
:1048A000087032480078A0B9012031490860002121
:1048B0000846FCF7FBFD41F28830FEF77DFB002047
:1048C0002B490860244908600120284908702949BB
:1048D00008701F480068F2280DD12648007801288A
:1048E00009D12548007830B901201B4908602249C8
:1048F0000870224908702148007801280CD1002056
:104900001C4908701649086800EBD0711C4A1268EF
:1049100002EB61011A4A11601948006819490968D7
:1049200088420DDB0020154908701748007838B917
:1049300000200949086001200D49086012490870EB
:1049400010BD0000FC000020E0000020F800002066
:1049500054000020FD000020EC000020F9000020A1
:10496000C00000200401002008010020FE000020FB
:10497000E4000020FA000020FF000020FB000020DF
:104980000C010020100100200001002010B5674834
:10499000007830B9012066490860644908706549AB
:1049A000087065480068F3280DD162480078012836
:1049B00009D16248007830B90120614908605F4937
:1049C0000870604908705F48007801280CD1002009
:1049D000584908705C49086800EBD0715B4A12685E
:1049E00002EB6101594A116058480068584909684A
:1049F00088421CDB00205349087056480078B0B943
:104A00000120554908605549086000210846FCF717
:104A10004DFD41F28830FEF7CFFA00204F49086083
:104A20004749086001204B4908704D4908704248C9
:104A30000068F3280DD14A480078012809D1494877
:104A4000007830B901203E4908604649087046495F
:104A500008704548007801280CD1002040490870B2
:104A60003949086800EBD071404A126802EB6101D5
:104A70003E4A11603D4800683D49096888421CDB98
:104A80000020394908703B480078B0B9012032490C
:104A900008603249086000210846FCF707FD41F232
:104AA0008830FEF789FA00202C4908602449086004
:104AB000012030490870304908701F480068F2280A
:104AC0000DD12D480078012809D12C48007830B943
:104AD00001201B49086029490870294908702848A5
:104AE000007801280CD10020234908701649086875
:104AF00000EBD071234A126802EB6101214A116078
:104B0000204800682049096888420DDB00201C49C4
:104B100008701E48007838B9002009490860012053
:104B20000E4908601949087010BD00007E01002080
:104B3000E000002078010020540000207F010020C8
:104B4000EC00002079010020C00000208801002036
:104B50008C01002080010020DC000020E400002007
:104B60007A010020810100207B01002090010020BB
:104B700094010020820100207C010020830100209C
:104B80007D010020980100209C010020840100206C
:104B900010B56748007830B901206649086064495B
:104BA00008706549087065480068F3280DD16248AF
:104BB0000078012809D16248007830B901206149A4
:104BC00008605F490870604908705F4800780128F4
:104BD0000CD10020584908705C49086800EBD0717E
:104BE0005B4A126802EB6101594A1160584800683B
:104BF0005849096888421CDB002053490870564810
:104C00000078B0B901205549086055490860002175
:104C10000846FCF74BFC41F28830FEF7CDF9002046
:104C20004F4908604749086001204B4908704D49C9
:104C3000087042480068F3280DD14A4800780128DE
:104C400009D14948007830B901203E4908604649F9
:104C50000870464908704548007801280CD10020AA
:104C6000404908703949086800EBD071404A126821
:104C700002EB61013E4A11603D4800683D49096808
:104C800088421CDB0020394908703B480078B0B9E5
:104C90000120324908603249086000210846FCF7CB
:104CA00005FC41F28830FEF787F900202C490860A6
:104CB00024490860012030490870304908701F48B5
:104CC0000068F2280DD12D480078012809D12C4820
:104CD000007830B901201B4908602949087029492A
:104CE00008702848007801280CD10020234908705A
:104CF0001649086800EBD071234A126802EB610183
:104D0000214A1160204800682049096888420DDB6B
:104D100000201C4908701E48007838B90020094955
:104D2000086001200E4908601949087010BD000094
:104D3000A6010020E0000020A00100205400002077
:104D4000A7010020EC000020A1010020C0000020ED
:104D5000B0010020B4010020A8010020D8000020EC
:104D6000E4000020A2010020A9010020A3010020EE
:104D7000B8010020BC010020AA010020A4010020ED
:104D8000AB010020A5010020C0010020C4010020CB
:104D9000AC0100202048007830B901201F4908608C
:104DA0001D4908701E4908701E480068F2280DD180
:104DB0001B480078012809D11B48007830B9012030
:104DC0001A4908601849087019490870184800788D
:104DD00001280CD10020124908701649086800EB20
:104DE000D071154A126802EB6101134A1160124832
:104DF00000681249096888420DDB00200C490870E0
:104E00000F48007838B900200849086001200D4992
:104E100008600B4908707047CA010020E0000020BC
:104E2000C801002054000020CB010020EC0000202D
:104E3000C9010020C0000020D0010020D4010020C2
:104E4000CC010020E40000204FF4A060FCF776FACB
:104E50004FF4E13001F0DCF94FF4E130FDF7CAF82E
:104E60004FF4E130FDF728F9FEF784F8FCF71DFA5E
:104E7000FBF7D2FCFBF71CFD002141F61F40FCF7BD
:104E8000B5F9FCF75DF800BF00F05CF90028FBD134
:104E9000FBF7ACFEFBF75AFE4FF480710248FBF7BC
:104EA0004FFE00BFFEE70000000801407047000011
:104EB00070B50446002624F00104184890F8240038
:104EC00008B1002070BD1548807A10B94FF0FF304E
:104ED000F8E71248057C807A20401049087408469B
:104EE000007CA04202D04FF0FF3600E0002614B94B
:104EF0000A48007D18B1012001F01CF902E00020F1
:104F000001F018F93CB100F077FC20B103480574BA
:104F10004FF0FF30D6E73046D4E700005C000020B9
:104F20002DE9F04F99B004460D4616464FF07E57D6
:104F30004FF000084FF000094FF0000A12A813A923
:104F400018AB0EAACDE9001014A916A8FEF702FAB4
:104F500018B1012019B0BDE8F08FBDF84C0000F485
:104F6000807000287ED00E9802F0C8F883464FF07B
:104F70009D4101F091FF07460F9802F0BFF883466C
:104F80004FF09D4101F088FF8046109802F0B6F87E
:104F900083464FF09D4101F07FFF8146119802F05A
:104FA000ADF883464FF09D4101F076FF82463946C9
:104FB0004FF0804002F002F94946059002F0FEF8F9
:104FC000414607904FF0404002F0F8F851460590F6
:104FD00002F0F4F80690079901F0F0FE834601F024
:104FE000C1FECDE90801FDF78BFC4FF06632544B52
:104FF000CDE90A0101F0DCFBCDE90C0101F058F923
:10500000206049464FF0804002F0D8F849460290AF
:1050100002F0D4F8414604904FF0404002F0CEF840
:105020004146029002F0CAF80390049902F0CEF9CA
:1050300083464FF07E5101F0C1FE059001F092FED3
:10504000CDE9080139464FF0804002F0B7F84146FB
:10505000039002F0B3F8494604904FF0804002F00C
:10506000ADF800E068E05146039002F0A7F88346EF
:10507000049901F0A3FE059001F074FECDE906014C
:10508000DDE90823FDF784FE4FF066322C4BCDE9B5
:105090000A0101F08DFBCDE90C0101F009F928604E
:1050A0005146504602F08AF849460490484602F0BC
:1050B00085F841460390404602F080F83946019059
:1050C000384602F07BF80090019901F077FE0290DB
:1050D000039902F07BF98346049902F077F9059071
:1050E00001F040FECDE908015146384602F066F86D
:1050F00049460490404602F061F80390049901F09B
:105100005DFE4FF08041059002F058F8834601F0B3
:1051100029FECDE90601DDE90823FDF739FE4FF050
:105120006632074BCDE90A0101F042FBCDE90C01E3
:1051300001F0BEF8306001E002200BE7002009E733
:1051400066A64C4070B50024FBF7DAFD00F020F9AC
:1051500000283DD1782000F0FBFEC4B20CB1012044
:1051600070BD7820FFF7A4FEC4B20CB10220F7E7AF
:10517000642000F09FFEC4B20CB10320F0E7FEF7FC
:10518000DDF8C4B20CB10420EAE71348FFF754F885
:105190000546FEF72DFBC4B20CB10520E0E740F256
:1051A0007310FDF773FFC4B20CB10620D8E764207A
:1051B000FEF74EFAC4B20CB10720D1E700F070FF41
:1051C0000446012000F072FDC4B21CB10920C7E7FB
:1051D0000A20C5E70020C3E78800002001461148E7
:1051E000407A30B1012807D0022808D003280CD11A
:1051F00008E0022008700BE00420087008E0082096
:10520000087005E01020087002E04FF0FF30704792
:1052100000BF0448C07C18B108784006000E087032
:105220000020F4E75C00002001461348407A30B1CA
:10523000012808D002280AD0032810D10BE04FF42F
:10524000804008800EE041F69C7008800AE04FF430
:105250008050088006E04FF40060088002E04FF0C4
:10526000FF30704700BF0448C07C10B10888401070
:1052700008800020F5E700005C000020014602489D
:10528000007C0870002070475C00002001460F4839
:10529000007A30B1012807D0022809D003280FD1A5
:1052A0000AE0FA2008800EE04FF4FA7008800AE065
:1052B0004FF47A70088006E04FF4FA60088002E04C
:1052C0000020088000BF00BF002070475C00002065
:1052D00001460E48007A30B1012807D0022808D0D4
:1052E00003280CD108E00A4808600BE00948086070
:1052F00008E00948086005E00848086002E04FF04F
:10530000FF30704700BF0020FBE700005C0000207A
:1053100000000343000083423333034233338341AD
:1053200001461248C07A082817D2DFE800F01704B7
:10533000070A0D101318BC20088013E062200880B3
:1053400010E02A2008800DE0142008800AE00A20DE
:10535000088007E00520088004E000BF00BF0020AF
:10536000088000BF00BF0020704700005C000020E4
:105370000146064890F8240010B14FF0FF30704706
:105380000248C08908800020F9E700005C00002086
:105390001CB580208DF80000604A1268917C5F4A3D
:1053A000526810786B460122FBF7EDFE10B14FF00A
:1053B000FF301CBD6420FDF7FFFD00208DF80000CC
:1053C000564A1268917C554A526810786B46012201
:1053D000FBF7D9FE10B14FF0FF30EAE74F4A1268F1
:1053E000917D4E4A526810786B460622FBF725FEE7
:1053F00010B14FF0FF30DCE79DF80500C007400F0B
:105400009DF8031001F0010140EA41009DF80110F0
:1054100001F0010140EA010474B1012C03D1012122
:105420003E48C17427E0022C03D100213B48C174DF
:1054300021E04FF0FF30BCE7384A1268D178374A94
:10544000526810786B460122FBF7F7FD10B14FF060
:10545000FF30AEE79DF8000000F00F0414B94FF0E4
:10546000FF30A6E7042C03D101212C48C17402E0CF
:1054700000212A48C174FF2128488172FF20274952
:105480000872FF2125484172C1724FF6FF71C18138
:10549000FF21017481740121017380F82210002121
:1054A00080F82310417501751630016041608160FC
:1054B000163880F8241080F82510C1844FF4FA6063
:1054C00000F03CFC10B14FF0FF3072E7022000F01A
:1054D00005FB10B14FF0FF306BE72A2000F0A8FC6D
:1054E00010B14FF0FF3064E7322000F0E3FC10B160
:1054F0004FF0FF305DE70020FFF7DAFC10B14FF00E
:10550000FF3056E7002000F02BFB10B14FF0FF30CA
:105510004FE7002000F01CFD00204AE75C0000205F
:105520002DE9F04385B005460E4690469946294838
:1055300090F8250020B14FF0FF3005B0BDE8F083B2
:1055400016B94FF0FF30F8E7002423E0281B10289D
:1055500001DD102000E0281B87B2321939462046B1
:1055600000F05EFD10B14FF0FF30E6E701AA3946CA
:10557000204600F001F910B14FF0FF30DDE730199F
:105580003A4601A9FAF787FE10B16FF00100D4E79F
:10559000E01984B2AC42D9DB4FEA28208DF8000034
:1055A00008F0FF008DF801000A4A1268917E094A4E
:1055B000526810786B460222FBF7E5FD10B14FF000
:1055C000FF30BAE70121034880F82510A0F82690A3
:1055D0000020B2E75C00002038B50446282C02DD2C
:1055E0004FF0FF3038BDDCB9002000F0EBFB0020AD
:1055F0008DF8000007208DF801002E4A1268917C7A
:105600002C4A526810786B460222FBF7BCFD10B1A1
:105610004FF0FF30E6E70021264801750020E1E762
:10562000012000F0CFFB20208DF80000012C06D1D6
:1056300000208DF80100052000F0FAFB17E0052C92
:1056400006DC01208DF80100052000F0F1FB0EE0E2
:10565000142C06DC02208DF801000A2000F0E8FB83
:1056600005E003208DF80100142000F0E1FB9DF817
:105670000100072101EB8010C0B28DF801000D4A36
:105680001268917C0B4A526810786B460222FBF735
:105690007AFD10B14FF0FF30A4E708210548817270
:1056A00000210173012101750020FFF701FC00209A
:1056B00098E700005C000020F8B504460F46164647
:1056C0002C4890F8240010B94FF0FF30F8BD29485D
:1056D000807A10B94FF0FF30F8E7264A1268917AC5
:1056E000244A526810786B460222FBF7A6FC10B1E0
:1056F0004FF0FF30EAE79DF801009DF8001040EA06
:105700000125A54203DA00203070401EDEE719486B
:1057100040684088B5EB600F17DD164A1268517C6F
:10572000144A526810786B460122FBF786FC10B1D0
:105730004FF0FF30CAE79DF8000000F0100020B1E4
:1057400000F05AF86FF00100C0E7E2B2094B1B68A5
:10575000D97A084B5B6818783B46FBF76EFC10B1B2
:105760004FF0FF30B2E795FBF4F0401E30700020A0
:10577000ACE700005C000020F8B504460D46164674
:1057800016B94FF0FF30F8BD1A48807A10B94FF0C3
:10579000FF30F8E720128DF80000E0B28DF801002C
:1057A0009DF801002844134949684989884202DD6F
:1057B0004FF0FF30E7E70F4A1268117E0D4A52683A
:1057C00010786B460222FBF7DEFC10B14FF0FF3081
:1057D000D9E7EAB2074B1B68597D064B5B6818781E
:1057E0003346FBF72AFC10B14FF0FF30CBE7002027
:1057F000C9E700005C00002008B57048807A10B945
:105800004FF0FF3008BD002000906C4A1268D17B39
:105810006A4A526810786B460122FBF7B4FC10B15B
:105820004FF0FF30EEE7654A12685179634A5268DB
:1058300010786B460122FBF7A6FC10B14FF0FF3049
:10584000E0E75E4A126811795C4A526810786B464C
:105850000122FBF798FC10B14FF0FF30D2E7574818
:1058600090F82400002853D00C200090534A12686E
:105870001179524A526810786B460122FBF783FC7B
:1058800010B14FF0FF30BDE73220FDF795FBC0208F
:1058900000904A48807A00F0010020B19DF8000095
:1058A00040F020000090454A12681179434A52683E
:1058B00010786B460122FBF766FC10B14FF0FF3009
:1058C000A0E73E48407C10B10220009001E000209B
:1058D00000903A4A1268D17B384A526810786B4679
:1058E0000122FBF750FC10B14FF0FF308AE7002097
:1058F0000090324A12685179304A526810786B46EB
:105900000122FBF740FC002855D04FF0FF3079E72B
:1059100004200090294A12681179284A52681078A8
:105920006B460122FBF72FFC10B14FF0FF3069E707
:105930002248807C20B92148807A00F0010010B90B
:105940004020009001E0602000901C4A126811790C
:105950001A4A526810786B460122FBF714FC10B10A
:105960004FF0FF304EE73220FDF726FB1348407C16
:1059700010B10120009001E0002000900F4A126851
:10598000D17B0E4A526810786B460122FBF7FBFB75
:1059900010B14FF0FF3035E7084A12685179074AD5
:1059A00052681078054B10330122FBF7ECFB10B165
:1059B0004FF0FF3026E7002024E700005C000020C5
:1059C0002DE9F04F8DB083460F4602200C904248DF
:1059D00090F8240020B1002000F068F9012600E0D2
:1059E000002603A8FFF752FC05A8FFF7F7FB01A864
:1059F000FFF796FC02A8FFF7BBFC374890F80AA017
:105A000004A8FFF73BFC002407E000223946584673
:105A1000FEF752F900B902E0641C022CF5DB00BF6E
:105A2000022C01D1002528E0002407E0012206A96C
:105A300009A8FEF741F900B902E0641C022CF5DB6D
:105A400000BF022C01D1002517E006A93846FCF75B
:105A500003FF00F0FF0809A95846FEF765FB00F0B8
:105A6000FF090025B9F1000F01D145F00105B8F19A
:105A7000000F01D145F0020500BFFF201649087252
:105A8000FF2115484172C1724FF6FF71C181FF219C
:105A90008172017401210173BDF80C0000F04EF910
:105AA0009DF8140000F01AF8BDF8040000F0C0F9E9
:105AB000BDF8080000F0FEF9504600F049FA9DF8E4
:105AC0001000FFF7F5F916B1012000F0EFF82846B5
:105AD0000DB0BDE8F08F00005C00002038B5044632
